:020000040800F2
:1000000000000824C1510008994E0008A14E0008C4
:10001000A94E0008B14E0008B94E000800000000CB
:100020000000000000000000000000001152000865
:10003000C14E0008000000008D0300083B030008CB
:100040001152000811520008115200081152000804
:1000500011520008115200081152000811520008F4
:1000600011520008115200081152000811520008E4
:1000700011520008115200081152000811520008D4
:1000800011520008115200081152000811520008C4
:10009000115200081152000811520008CF4E0008FA
:1000A00011520008115200081152000811520008A4
:1000B0001152000811520008115200081152000894
:1000C0001152000811520008115200081152000884
:1000D0001152000811520008115200081152000874
:1000E00011520008115200080000000011520008CF
:1000F0001152000811520008115200081152000854
:100100001152000811520008115200081152000843
:100110001152000811520008DD4E0008115200086B
:100120001152000811520008115200081152000823
:1001300011520008F14E0008115200081152000837
:1001400000000000000000000000000000000000AF
:1001500011520008115200081152000811520008F3
:1001600011520008115200081152000811520008E3
:1001700011520008115200081152000811520008D3
:1001800011520008115200081152000811520008C3
:1001900011520008115200081152000811520008B3
:1001A00011520008115200081152000811520008A3
:1001B0001152000811520008115200081152000893
:1001C0001152000811520008115200081152000883
:1001D0001152000811520008115200081152000873
:1001E0001152000811520008115200081152000863
:1001F0001152000811520008115200081152000853
:100200001152000811520008115200081152000842
:100210001152000811520008115200081152000832
:10022000115200081152000811520008000000008D
:10023000115200081152000800000000115200087D
:100240001152000811520008115200081152000802
:1002500011520008115200081152000811520008F2
:1002600011520008115200081152000811520008E2
:10027000115200081152000811520008000000003D
:10028000115200081152000811520008000000002D
:080290000000000011520008FB
:1002A00010B5054C237833B9044B13B10448AFF3B0
:1002B00000800123237010BD3806002400000000D8
:1002C000E48E110808B5034B1BB103490348AFF393
:1002D000008008BD000000003C060024E48E1108E8
:1002E00072B64FF0E0201A49C0F8081D19481849A5
:1002F000096801601848016841F0010101604FF090
:10030000E0204FF6FF1141614FF0070101614FF00E
:100310000001C0F8181D4FF07F41C0F81C1D0F49A7
:10032000C0F8201D7047FFF7FEBFFFF7FEBFFFF7C5
:10033000FEBF01B5BDE80140704701B500F090F87F
:10034000BDE801407047FFF7FEBFFFF7FEBF0000AA
:10035000000000088CA70424001000E00000FF400B
:100360004FF000002A4A1060EFF3148020F00400E0
:1003700080F3148862B64FF080504FF0E021C1F84E
:10038000040DBFF34F8FBFF36F8FFEE72148224A62
:100390004FF00003016891B10360EFF3098C2CE981
:1003A000F00F1EF0100F01D12CED108A1B4C4CF8F1
:1003B00004ED2568C1F808C00DB18D61236072B6E7
:1003C0001168B1B1016062B64F68144C8D6907F1D4
:1003D00001074F602560D1F808C05CF804EB1EF0FF
:1003E000100F01D1BCEC108ABCE8F00F8CF3098827
:1003F000704772B61168016009B962B6F9E74FF04B
:1004000000674FF0E028C8F8047D62B6DCE770476B
:1004100028A8042490A7042494A7042494B10424B5
:10042000026922F00702A2F144026FF00203136096
:100430004FF0000353609360D36013615361936185
:10044000D361136253629362D362136353634FF0B9
:10045000FF339363D1634FF08073136482607047FE
:100460002249086800F101000860214B1A683AB17E
:10047000A2F101021A601AB91E4B4FF00100186078
:100480001D490868026822B11C4B4FF001021A6036
:1004900008E000F104001A4B1A68904201D1194B90
:1004A00018680860134B1A6812B914490868D0B16B
:1004B0002DE901401149086808B11CF0D7F80D4B2F
:1004C0001A6872B11BF0C2FF0F48016849B90F48A2
:1004D00001680F4A13680F484FF08052994200D0CC
:1004E0000260BDE80140BFF34F8F704734A8042479
:1004F00094B1042438A80424C4A80424C8A804245B
:10050000C0A80424BCA8042428A8042490A7042478
:1005100094A7042404ED00E00000000000000000A7
:1005200001F0FF01102A2BDB10F0070F08D010F8A4
:10053000013B013A8B422DD010F0070F42B3F6D1A8
:10054000F0B441EA012141EA014122F007047FF0C1
:1005500000070023F0E80256083C85EA010586EA18
:10056000010685FA47F5A3FA87F586FA47F6A5FA54
:1005700087F68EB9EED1F0BC01F0FF0102F0070260
:1005800032B110F8013B013A83EA010313B1F8D10B
:100590000020704701387047002D06BF35460338EC
:1005A000073815F0010F07D1013015F4807F02BF25
:1005B000013015F4C03F0130F0BC0138704700BF76
:1005C000034613F8012B002AFBD1181A0138704793
:1005D00081F0004102E000BF83F0004330B54FEAF4
:1005E00041044FEA430594EA050F08BF90EA020F61
:1005F0001FBF54EA000C55EA020C7FEA645C7FEAF4
:10060000655C00F0E2804FEA5454D4EB5555B8BF16
:100610006D420CDD2C4480EA020281EA030382EA87
:10062000000083EA010180EA020281EA0303362D19
:1006300088BF30BD11F0004F4FEA01314FF4801CEC
:100640004CEA113102D0404261EB410113F0004FFE
:100650004FEA03334CEA133302D0524263EB4303B5
:1006600094EA050F00F0A780A4F10104D5F1200E53
:100670000DDB02FA0EFC22FA05F2801841F10001AE
:1006800003FA0EF2801843FA05F359410EE0A5F182
:1006900020050EF1200E012A03FA0EFC28BF4CF0B3
:1006A000020C43FA05F3C01851EBE37101F0004569
:1006B00007D54FF0000EDCF1000C7EEB00006EEB76
:1006C0000101B1F5801F1BD3B1F5001F0CD3490800
:1006D0005FEA30004FEA3C0C04F101044FEA445257
:1006E00012F5800F80F09A80BCF1004F08BF5FEADE
:1006F000500C50F1000041EB045141EA050130BDBE
:100700005FEA4C0C404141EB0101013C28BFB1F5CF
:10071000801FE9D291F0000F04BF01460020B1FA1A
:1007200081F308BF2033A3F10B03B3F120020CDAED
:100730000C3208DD02F1140CC2F10C0201FA0CF0CB
:1007400021FA02F10CE002F11402D8BFC2F1200C30
:1007500001FA02F120FA0CFCDCBF41EA0C019040E6
:10076000E41AA2BF01EB0451294330BD6FEA04042F
:100770001F3C1CDA0C340EDC04F11404C4F120021A
:1007800020FA04F001FA02F340EA030021FA04F32C
:1007900045EA030130BDC4F10C04C4F1200220FA83
:1007A00002F001FA04F340EA0300294630BD21FAC1
:1007B00004F0294630BD94F0000F83F4801306BF87
:1007C00081F480110134013D4EE77FEA645C18BF7B
:1007D0007FEA655C29D094EA050F08BF90EA020F12
:1007E00005D054EA000C04BF1946104630BD91EA0A
:1007F000030F1EBF0021002030BD5FEA545C05D10D
:100800004000494128BF41F0004130BD14F580044B
:100810003CBF01F5801130BD01F0004545F0FE41BF
:1008200041F470014FF0000030BD7FEA645C1ABFF4
:10083000194610467FEA655C1CBF0B46024650EA2B
:10084000013406BF52EA033591EA030F41F4002157
:1008500030BD00BF90F0000F04BF0021704730B5DD
:100860004FF4806404F132044FF000054FF00001B2
:1008700050E700BF90F0000F04BF0021704730B573
:100880004FF4806404F1320410F0004548BF404248
:100890004FF000013EE700BF42004FEAE2014FEA9D
:1008A00031014FEA02701FBF12F07F4393F07F4F78
:1008B00081F06051704732F07F4208BF704793F07B
:1008C0007F4F04BF41F40021704730B54FF460748E
:1008D00001F0004521F000411CE700BF50EA010291
:1008E00008BF704730B54FF000050AE050EA01023A
:1008F00008BF704730B511F0004502D5404261EBAA
:1009000041014FF4806404F132045FEA915C3FF4EA
:10091000D8AE4FF003025FEADC0C18BF03325FEA87
:10092000DC0C18BF033202EBDC02C2F1200300FA38
:1009300003FC20FA02F001FA03FE40EA0E0021FA5D
:1009400002F11444BDE600BF80F0004002E000BFA9
:1009500081F0004142001FBF5FEA410392EA030FAA
:100960007FEA226C7FEA236C6AD04FEA1262D2EBF4
:100970001363C1BFD218414048404140B8BF5B42F9
:10098000192B88BF704710F0004F40F4000020F092
:100990007F4018BF404211F0004F41F4000121F0A8
:1009A0007F4118BF494292EA030F3FD0A2F10102F2
:1009B00041FA03FC10EB0C00C3F1200301FA03F130
:1009C00000F0004302D5494260EB4000B0F5000F53
:1009D00013D3B0F1807F06D340084FEA310102F112
:1009E0000102FE2A51D2B1F1004F40EBC25008BFC4
:1009F00020F0010040EA03007047490040EB00008E
:100A0000013A28BFB0F5000FEDD2B0FA80FCACF18E
:100A1000080CB2EB0C0200FA0CF0AABF00EBC250BB
:100A200052421843BCBFD0401843704792F0000FA9
:100A300081F4000106BF80F400000132013BB5E7FC
:100A40004FEA41037FEA226C18BF7FEA236C21D072
:100A500092EA030F04D092F0000F08BF08467047D7
:100A600090EA010F1CBF0020704712F07F4F04D1A5
:100A7000400028BF40F00040704712F100723CBFB8
:100A800000F50000704700F0004343F0FE4040F4E2
:100A9000000070477FEA226216BF08467FEA2363A0
:100AA0000146420206BF5FEA412390EA010F40F48B
:100AB000800070474FF0000304E000BF10F00043D7
:100AC00048BF40425FEA000C08BF704743F09643BE
:100AD00001464FF000001CE050EA010208BF7047D9
:100AE0004FF000030AE000BF50EA010208BF704760
:100AF00011F0004302D5404261EB41015FEA010C75
:100B000002BF84460146002043F0B64308BFA3F16C
:100B10008053A3F50003BCFA8CF2083AA3EBC2534E
:100B200010DB01FA02FC634400FA02FCC2F120026D
:100B3000BCF1004F20FA02F243EB020008BF20F0A4
:100B40000100704702F1200201FA02FCC2F120020A
:100B500050EA4C0021FA02F243EB020008BF20EAFF
:100B6000DC7070477BB972B90029BEBF00204FF01E
:100B7000004106E008BF00281CBF6FF000414FF0A5
:100B8000FF3000F0F5B9ADF1080C6DE904CE002995
:100B900009DB002B1ADB00F06FF8DDF804E0DDE97B
:100BA000022304B07047404261EB4101002B1BDB84
:100BB00000F062F8DDF804E0DDE9022304B0404211
:100BC00061EB4101524263EB43037047524263EBD6
:100BD000430300F051F8DDF804E0DDE9022304B03E
:100BE000404261EB41017047524263EB430300F026
:100BF00043F8DDF804E0DDE9022304B0524263EB80
:100C00004303704753B94AB9002908BF00281CBFE5
:100C10004FF0FF314FF0FF3000F0AAB9ADF1080CF2
:100C20006DE904CE00F028F8DDF804E0DDE90223E8
:100C300004B07047000000009FED0B6B41EC170BF8
:100C40009FED0B5B27EE066BBCEEC66BB8EE464B1A
:100C5000A4EE457BFCEEC77B16EE101A17EE900A49
:100C6000704700BFAFF30080000000000000F03DBF
:100C7000000000000000F0412DE9F047089D8E467D
:100C800004468846002B4AD18A42174662D9B2FAF6
:100C900082F64EB1C6F1200301FA06F820FA03F3FA
:100CA000B74043EA0808B4404FEA174E1FFA87FCE2
:100CB000B8FBFEF1230C0EFB118843EA084301FB4D
:100CC0000CF29A4209D9FB1801F1FF3080F0EA805A
:100CD0009A4240F2E78002393B449A1AA3B2B2FB2F
:100CE000FEF00EFB102243EA024300FB0CFC9C4585
:100CF00009D9FB1800F1FF3280F0D6809C4540F204
:100D0000D3803B44023840EA0140A3EB0C030021AE
:100D10001DB1F3400022C5E90032BDE8F0878B42E7
:100D200005D90DB1C5E9000100210846F5E7B3FA80
:100D300083F1002946D1734502D3824200F2058136
:100D4000841A6EEB030201209046002DE5D0C5E920
:100D50000048E2E7002A00F09080B2FA82F6002E06
:100D600040F0A4808A1A030C4FEA174E80B2BCB23E
:100D70000121B2FBFEFC0EFB1C2243EA024304FBF2
:100D80000CF29A4207D9FB180CF1FF3802D29A42B2
:100D900000F2E080C4469B1AB3FBFEF20EFB123356
:100DA00040EA034302FB04F49C4207D9FB1802F11A
:100DB000FF3002D29C4200F2CA8002461B1B42EA6C
:100DC0000C40A5E7C1F120068B4022FA06F71F432D
:100DD0000EFA01F420FA06F32EFA06FE4FEA17493E
:100DE000234300FA01F81FFA87FCBEFBF9F01C0C44
:100DF00009FB10EE44EA0E4400FB0CFEA64502FA85
:100E000001F209D93C1900F1FF3A80F09C80A64517
:100E100040F2998002383C44A4EB0E041FFA83FE92
:100E2000B4FBF9F309FB13444EEA044403FB0CFC46
:100E3000A44508D93C1903F1FF3E80F08280A44507
:100E40007FD9023B3C4443EA0040A4EB0C04A0FBE6
:100E500002EC64457346E14662D35FD05DB1B8EB06
:100E6000030264EB090404FA06F622FA01F31E43B6
:100E7000CC40C5E9006400214FE7B1FBF2FC010C56
:100E800041EA0E4180B240EA01423B4638463C46C8
:100E9000B846BE462026B1FBF7F1A2EB080241EAB4
:100EA0000C4166E7014618E710462CE7C6F1200220
:100EB0002EFA02F3B740B14020FA02F24FEA174E81
:100EC0000A43B3FBFEF8BCB20EFB1833110C41EA27
:100ED000034108FB04F9B04089454FEA104380B252
:100EE0003ED9791808F1FF3C01D289451FD8A1EB02
:100EF0000901B1FBFEF909FB04F80EFB191192B2CE
:100F000042EA0142424529D2BA1809F1FF31C4D25E
:100F10004245C2D2A9F102013A44BEE7F0459DD252
:100F2000BEEB02036CEB070C0138E14696E7A7EB3A
:100F300009094944A8F1020CB1FBFEF909FB04F8C8
:100F4000DBE773467FE7504666E70846FDE63B442D
:100F5000023A33E7ACF1020C3B441CE749469CE7FC
:100F6000A1EB0901C446B1FBFEF909FB04F8C4E793
:100F7000704700BF80B586B002AF78600023FB6089
:100F8000342300934FF48063164A174917481BF027
:100F900017FE0346002B0AD1144BBB60B86803F060
:100FA0007DF9F860FB68002B01D000BFFDE734231A
:100FB00000934BF650630E4A0E490F481BF000FE9B
:100FC0000346002B0AD10C4BBB60B8683AF03EFADE
:100FD000F860FB68002B01D000BFFDE700BF1037B1
:100FE000BD4680BD54060024008F1108540A002419
:100FF00000210230148F1108880A002480B58AB0BD
:1010000002AF0023FB61324BBB61002016F164FD8F
:1010100030483DF015FDF861FB69002B07D03DF02D
:10102000E4FCFB699BB22C4A02F0B8FA4CE00120C8
:101030003DF0ECFC07F10C0207F1100319462748BC
:1010400017F044FD3B691B0EDBB23B723B691B0C86
:10105000DBB27B723B691B0ADBB2BB723B69DBB262
:10106000FB7207F1080318463DF012FFB8693DF026
:1010700029FF3CF06DFC3CF003FC0346002B18D02C
:10108000174B7B617B697B60012301933B1D0093C0
:1010900000230022B9690F483CF0FCFBF861FB69B2
:1010A000002B06D0FB699BB219460E4816F170FE64
:1010B0000AE014203CF02CFC01203CF039FC01F04B
:1010C00097FB00203EF02EF92037BD4680BD00BFC3
:1010D000F08F110808BC1108089011089CB2042474
:1010E0002C9011083C90110880B400AF044B1B6891
:1010F0005A1C03490A601846BD465DF8047B7047D8
:1011000000000024B0B590B000AF7860396007F1FE
:10111000080318463DF0BCFF01203EF033F90346BA
:10112000BB60022387F82030FFF7DEFF03463B63F6
:1011300008203EF027F9F863FB6B002B04D1274809
:1011400016F18EFE002345E0FB6B7A685A607868E2
:10115000FFF736FA03461AB2FB6B1A80FB6B0022CC
:101160001C461546C7E9044507F1080318463DF03B
:101170009DFFB863BB6B002B07D0BB6B9BB21946BE
:10118000174816F105FE002324E03B68002B10D021
:10119000BB68194638683EF08FF8B863BB6B002B0C
:1011A00017D0BB6B9BB219460E4816F1F1FD002318
:1011B00010E0BB6818463EF09BF8B863BB6B002B91
:1011C00007D0BB6B9BB21946074816F1E1FD00231F
:1011D00000E0BB6818464037BD46B0BD6C901108B2
:1011E00084901108AC901108D49011082DE9B04FEB
:1011F000BAB000AF78610B46FB74BC4A07F1380304
:1012000007CA83E80700BA4B07F124041D460FCD37
:101210000FC42B682370B74A07F1180307CA83E885
:1012200007000023C7F8E4307B691B69002B40F0FE
:10123000EA817B691B88013B0F2B00F28D8501A29F
:1012400052F823F085120008A9120008CD120008F8
:10125000F112000819130008411300086713000871
:101260008D130008BF130008F113000821140008B3
:10127000A5140008511400087D1400081915000871
:101280009115000804203EF07DF878647B6C002BFB
:1012900002D1002300F065BD7B6C00221A607B6CDC
:1012A000C7F8E43000F05BBD01203EF06BF8B86495
:1012B000BB6C002B02D1002300F053BDBB6CFA7C49
:1012C0001A70BB6CC7F8E43000F049BD01203EF055
:1012D00059F8F864FB6C002B02D1002300F041BDEB
:1012E000FA7CFB6C1A70FB6CC7F8E43000F037BD79
:1012F00002203EF047F838653B6D002B02D10023F9
:1013000000F02FBD97F913301AB23B6D1A803B6D78
:10131000C7F8E43000F023BD02203EF033F87865D2
:101320007B6D002B02D1002300F01BBD97F9133019
:101330009AB27B6D1A807B6DC7F8E43000F00FBD68
:1013400004203EF01FF8B865BB6D002B02D10023CE
:1013500000F007BD97F91320BB6D1A60BB6DC7F88D
:10136000E43000F0FCBC04203EF00CF8F865FB6DA6
:10137000002B02D1002300F0F4BC97F91320FB6D81
:101380001A60FB6DC7F8E43000F0E9BC08203DF0BE
:10139000F9FF38663B6E002B02D1002300F0E1BC60
:1013A00097F91330DA17BB60FA603B6ED7E9021287
:1013B000C3E900123B6EC7F8E43000F0D0BC08204F
:1013C0003DF0E0FF78667B6E002B02D1002300F039
:1013D000C8BC97F91330DA173B607A607B6ED7E9A7
:1013E0000012C3E900127B6EC7F8E43000F0B7BC0E
:1013F00004203DF0C7FFB866BB6E002B02D100236E
:1014000000F0AFBC97F9133007EE903AF8EEE77AA8
:10141000BB6EC3ED007ABB6EC7F8E43000F09FBC32
:1014200008203DF0AFFFF866FB6E002B02D10023D1
:1014300000F097BC97F9133007EE903AB8EEE77BCF
:10144000FB6E83ED007BFB6EC7F8E43000F087BCD9
:1014500008203DF097FFB867BB6F002B02D1002337
:1014600000F07FBC01F004FF02460B46B96FC1E9F2
:101470000023BB6FC7F8E43000F071BC10203DF0D2
:1014800081FFF867FB6F002B02D1002300F069BCDD
:1014900010220021F86F16F15FFEFB6FC7F8E430F1
:1014A00000F05DBC7B69DB6818463DF06BFF786738
:1014B0007B6F002B02D1002300F053BC7B69DB68FB
:1014C0001A460021786F16F147FE07F138031946D6
:1014D000786F16F1CCFE0C203DF054FF38673B6F5F
:1014E000002B09D1002300F03CBC00BF049111087F
:1014F00010911108249111083B6F7A6F9A603B6F2D
:101500000B221A607B69DB681A463B6F5A603B6F9F
:10151000C7F8E43000F023BC7B69DB6818463DF077
:1015200031FFC7F88400D7F88430002B02D10023A4
:1015300000F017BC7B69DB681A460021D7F88400ED
:1015400016F10AFE07F124031946D7F8840016F1B4
:101550008EFE0C203DF016FFC7F88000D7F88030D3
:10156000002B01D10023FCE3D7F88030D7F884208A
:101570009A60D7F8803010221A607B69DB681A46BF
:10158000D7F880305A60D7F88030C7F8E430E6E307
:101590007B69DB6818463DF0F5FEC7F88C00D7F88C
:1015A0008C30002B01D10023DBE37B69DB681A461A
:1015B0000021D7F88C0016F1CFFD07F1180319466A
:1015C000D7F88C0016F153FE0C203DF0DBFEC7F877
:1015D0008800D7F88830002B01D10023C1E3D7F869
:1015E0008830D7F88C209A60D7F888300B221A60A0
:1015F0007B69DB681A46D7F888305A60D7F888309C
:10160000C7F8E430ABE37B691B69C7F8DC30002323
:10161000C7F8E0307B691B88013B0F2B00F29E83EB
:1016200001A252F823F000BF69160008BD16000899
:101630000B17000859170008B1170008091800080F
:101640005F180008B5180008131900087119000880
:10165000D1190008E91A0008311A00088D1A00088B
:10166000B91B0008891C0008D7F8DC309B0018461D
:101670003DF088FEC7F89000D7F89030002B01D1DC
:1016800000236EE30023C7F8E0300CE0D7F8E03029
:101690009B00D7F89020134400221A60D7F8E0305E
:1016A0000133C7F8E030D7F8E030D7F8DC209A42B1
:1016B000ECD8D7F89030C7F8E43050E3D7F8DC0026
:1016C0003DF060FEC7F89400D7F89430002B01D1AC
:1016D000002346E30023C7F8E0300BE0D7F8E03002
:1016E000D7F894201344FA7C1A70D7F8E03001330D
:1016F000C7F8E030D7F8E030D7F8DC209A42EDD8D0
:10170000D7F89430C7F8E43029E3D7F8DC003DF08F
:1017100039FEC7F89800D7F89830002B01D1002384
:101720001FE30023C7F8E0300BE0D7F8E030D7F82C
:1017300098201344FA7C1A70D7F8E0300133C7F8C8
:10174000E030D7F8E030D7F8DC209A42EDD8D7F86F
:101750009830C7F8E43002E3D7F8DC305B00184675
:101760003DF010FEC7F89C00D7F89C30002B01D14B
:101770000023F6E20023C7F8E0300EE0D7F8E030AF
:101780005B00D7F89C20134497F9132012B21A80FB
:10179000D7F8E0300133C7F8E030D7F8E030D7F8B9
:1017A000DC209A42EAD8D7F89C30C7F8E430D6E279
:1017B000D7F8DC305B0018463DF0E4FDC7F8A00028
:1017C000D7F8A030002B01D10023CAE20023C7F8CC
:1017D000E0300EE0D7F8E0305B00D7F8A0201344EB
:1017E00097F9132092B21A80D7F8E0300133C7F886
:1017F000E030D7F8E030D7F8DC209A42EAD8D7F8C2
:10180000A030C7F8E430AAE2D7F8DC309B001846D5
:101810003DF0B8FDC7F8A400D7F8A430002B01D1E3
:1018200000239EE20023C7F8E0300DE0D7F8E03057
:101830009B00D7F8A420134497F913201A60D7F817
:10184000E0300133C7F8E030D7F8E030D7F8DC20DB
:101850009A42EBD8D7F8A430C7F8E4307FE2D7F843
:10186000DC309B0018463DF08DFDC7F8A800D7F886
:10187000A830002B01D1002373E20023C7F8E03029
:101880000DE0D7F8E0309B00D7F8A820134497F973
:1018900013201A60D7F8E0300133C7F8E030D7F8EA
:1018A000E030D7F8DC209A42EBD8D7F8A830C7F858
:1018B000E43054E2D7F8DC30DB0018463DF062FD3E
:1018C000C7F8AC00D7F8AC30002B01D1002348E2B8
:1018D0000023C7F8E03011E0D7F8E030DB00D7F89C
:1018E000AC201A4497F91330D9179A468B46C2E9AF
:1018F00000ABD7F8E0300133C7F8E030D7F8E0307C
:10190000D7F8DC209A42E7D8D7F8AC30C7F8E430F3
:1019100025E2D7F8DC30DB0018463DF033FDC7F890
:10192000B000D7F8B030002B01D1002319E200231A
:10193000C7F8E03011E0D7F8E030DB00D7F8B0208E
:101940001A4497F91330D91798468946C2E9008995
:10195000D7F8E0300133C7F8E030D7F8E030D7F8F7
:10196000DC209A42E7D8D7F8B030C7F8E430F6E187
:10197000D7F8DC309B0018463DF004FDC7F8B400F2
:10198000D7F8B430002B01D10023EAE10023C7F8D7
:10199000E03012E0D7F8E0309B00D7F8B4201344D1
:1019A00097F9132007EE902AF8EEE77AC3ED007A54
:1019B000D7F8E0300133C7F8E030D7F8E030D7F897
:1019C000DC209A42E6D8D7F8B430C7F8E430C6E154
:1019D000D7F8DC30DB0018463DF0D4FCC7F8B8007F
:1019E000D7F8B830002B01D10023BAE10023C7F8A3
:1019F000E03012E0D7F8E030DB00D7F8B82013442D
:101A000097F9132007EE902AB8EEE77B83ED007B71
:101A1000D7F8E0300133C7F8E030D7F8E030D7F836
:101A2000DC209A42E6D8D7F8B830C7F8E43096E11F
:101A3000D7F8DC30DB0018463DF0A4FCC7F8C40042
:101A4000D7F8C430002B01D100238AE10023C7F866
:101A5000E03010E0D7F8E030DB00D7F8C420D4182D
:101A600001F006FC02460B46C4E90023D7F8E0303B
:101A70000133C7F8E030D7F8E030D7F8DC209A42DD
:101A8000E8D8D7F8C430C7F8E43068E1D7F8DC30DC
:101A90001B0118463DF076FCC7F8C800D7F8C830DF
:101AA000002B01D100235CE10023C7F8E03010E0F7
:101AB000D7F8E0301B011A46D7F8C830134410227B
:101AC0000021184616F148FBD7F8E0300133C7F87B
:101AD000E030D7F8E030D7F8DC209A42E8D8D7F8E1
:101AE000C830C7F8E4303AE1D7F8DC2013465B0091
:101AF00013449B0018463DF045FCC7F8C000D7F8DA
:101B0000C030002B01D100232BE10023C7F8E030C7
:101B100047E07B69DB6818463DF034FCC7F8BC0041
:101B2000D7F8BC30002B01D100231AE17B69DB68B8
:101B30001A460021D7F8BC0016F10EFB07F1380356
:101B40001946D7F8BC0016F192FBD7F8E0201346EF
:101B50005B0013449B001A46D7F8C0301344D7F8F3
:101B6000BC209A60D7F8E02013465B0013449B002A
:101B70001A46D7F8C03013440B221A607B69D96823
:101B8000D7F8E02013465B0013449B001A46D7F8B1
:101B9000C03013440A465A60D7F8E0300133C7F822
:101BA000E030D7F8E030D7F8DC209A42B1D8D7F847
:101BB000C030C7F8E430D2E0D7F8DC2013465B0031
:101BC00013449B0018463DF0DDFBC7F8D000D7F862
:101BD000D030002B01D10023C3E00023C7F8E03050
:101BE00047E07B69DB6818463DF0CCFBC7F8CC00CA
:101BF000D7F8CC30002B01D10023B2E07B69DB6841
:101C00001A460021D7F8CC0016F1A6FA07F12403F2
:101C10001946D7F8CC0016F12AFBD7F8E020134676
:101C20005B0013449B001A46D7F8D0301344D7F812
:101C3000CC209A60D7F8E02013465B0013449B0049
:101C40001A46D7F8D030134410221A607B69D9683D
:101C5000D7F8E02013465B0013449B001A46D7F8E0
:101C6000D03013440A465A60D7F8E0300133C7F841
:101C7000E030D7F8E030D7F8DC209A42B1D8D7F876
:101C8000D030C7F8E4306AE0D7F8DC2013465B00B8
:101C900013449B0018463DF075FBC7F8D800D7F8F1
:101CA000D830002B01D100235BE00023C7F8E030DF
:101CB00047E07B69DB6818463DF064FBC7F8D40059
:101CC000D7F8D430002B01D100234AE07B69DB68D0
:101CD0001A460021D7F8D40016F13EFA07F118038E
:101CE0001946D7F8D40016F1C2FAD7F8E020134607
:101CF0005B0013449B001A46D7F8D8301344D7F83A
:101D0000D4209A60D7F8E02013465B0013449B0070
:101D10001A46D7F8D83013440B221A607B69D96869
:101D2000D7F8E02013465B0013449B001A46D7F80F
:101D3000D83013440A465A60D7F8E0300133C7F868
:101D4000E030D7F8E030D7F8DC209A42B1D8D7F8A5
:101D5000D830C7F8E43002E000BF00E000BFD7F899
:101D6000E4301846E837BD46BDE8B08FB0B59AB04C
:101D700000AF7860396020203DF004FB78667B6E10
:101D8000002B01D1002383E000217868FFF72EFAB1
:101D900002467B6E1A607B6E1B68002B04D1786E46
:101DA0003DF06AFB002373E03CF01FFE02460B4649
:101DB000796EC1E904237B6E00229A617B6E00225A
:101DC000DA607B689A697B6E5A607B68DA697B6E41
:101DD0009A6008203DF0D6FA38663B6E002B04D19D
:101DE000786E3DF049FB002352E07B685A683B6EF9
:101DF0005A607B685B681846FEF7E2FB03461AB23E
:101E00003B6E1A8007F1080318463DF0EDF97B6E32
:101E1000BB603B6E00221C461546C7E90445022301
:101E200087F820307B689B683B630123FB837B68DA
:101E30001B883B877B689B8AA7F84E307B681B69B1
:101E4000BB6407F1080318463DF0FAF9F865FB6D2D
:101E5000002B07D0386E3DF00FFB786E3DF00CFB89
:101E6000002315E0BB68194638683DF025FAF8658F
:101E7000FB6D002B0BD0BB6818463DF0C1F8386EE7
:101E80003DF0FAFA786E3DF0F7FA002300E0BB6807
:101E900018466837BD46B0BDB0B59AB000AFF8601F
:101EA000B9607A6008203DF06DFA78667B6E002B91
:101EB00001D100234DE0BB685A687B6E5A60BB6855
:101EC0005B681846FEF77CFB03461AB27B6E1A80ED
:101ED00007F1100318463DF087F9FB683B617B6E04
:101EE00000221C461546C7E90645022387F828301C
:101EF000BB689B68BB630123FB84BB681B88A7F896
:101F00004030BB689B8AA7F85630BB681B693B65AD
:101F100007F1100318463DF093F938663B6E002B2D
:101F200004D0786E3DF0A8FA002312E03B69194610
:101F300078683DF0C1F938663B6E002B08D03B69EC
:101F400018463DF05DF8786E3DF096FA002300E00B
:101F50003B6918466837BD46B0BD80B485B000AF58
:101F600078607B68FB60FB681B68BB60BB681B68B4
:101F70005A1CBB681A60FB6800229A6100BF1437C4
:101F8000BD465DF8047B704780B586B000AF7860D1
:101F90007B687B617B691B683B610023FB600121DF
:101FA000104807F019FE03461A463B691A707B6910
:101FB00000229A613CF022FDF860FB68002B07D1FB
:101FC0003CF013FD02460B467969C1E9042305E0A4
:101FD000FB68D3E900237969C1E9042300BF1837FE
:101FE000BD4680BD0004025880B584B000AF786063
:101FF0007B68FB60FB681B681B78FB72FB7A002B1D
:1020000005D001220121084807F0FEFD04E000226E
:102010000121054807F0F8FDFB6800229A6100BF26
:102020001037BD4680BD00BF0004025880B586B0A1
:1020300000AF78607B687B617B691B683B61002334
:10204000FB604FF48051114807F0C6FD03461A4665
:102050003B691A707B6900229A613CF0CFFCF86002
:10206000FB68002B07D13CF0C0FC02460B467969A7
:10207000C1E9042305E0FB68D3E900237969C1E9DC
:10208000042300BF1837BD4680BD00BF00180258AA
:1020900080B586B000AF78607B687B617B691B6828
:1020A0003B610023FB604FF48041114807F094FD31
:1020B00003461A463B691A707B6900229A613CF01C
:1020C0009DFCF860FB68002B07D13CF08EFC0246BB
:1020D0000B467969C1E9042305E0FB68D3E90023D5
:1020E0007969C1E9042300BF1837BD4680BD00BF30
:1020F0000010025880B586B000AF78607B687B61C5
:102100007B691B683B610023FB604FF40051114861
:1021100007F062FD03461A463B691A707B6900228C
:102120009A613CF06BFCF860FB68002B07D13CF037
:102130005CFC02460B467969C1E9042305E0FB68B3
:10214000D3E900237969C1E9042300BF1837BD46EC
:1021500080BD00BF0010025880B586B000AF786027
:102160007B687B617B691B683B610023FB604FF4EC
:102170008041114807F030FD03461A463B691A704A
:102180007B6900229A613CF039FCF860FB68002B07
:1021900007D13CF02AFC02460B467969C1E90423C9
:1021A00005E0FB68D3E900237969C1E9042300BF96
:1021B0001837BD4680BD00BF0018025880B586B0F4
:1021C00000AF78607B687B617B691B683B610023A3
:1021D000FB604021104807F0FFFC03461A463B69AC
:1021E0001A707B6900229A613CF008FCF860FB6879
:1021F000002B07D13CF0F9FB02460B467969C1E997
:10220000042305E0FB68D3E900237969C1E90423CD
:1022100000BF1837BD4680BD0018025880B586B093
:1022200000AF78607B687B617B691B683B61002342
:10223000FB604021104807F0CFFC03461A463B697B
:102240001A707B6900229A613CF0D8FBF860FB6849
:10225000002B07D13CF0C9FB02460B467969C1E966
:10226000042305E0FB68D3E900237969C1E904236D
:1022700000BF1837BD4680BD0004025880B586B047
:1022800000AF78607B687B617B691B683B610023E2
:10229000FB608021104807F09FFC03461A463B690B
:1022A0001A707B6900229A613CF0A8FBF860FB6819
:1022B000002B07D13CF099FB02460B467969C1E936
:1022C000042305E0FB68D3E900237969C1E904230D
:1022D00000BF1837BD4680BD0004025880B586B0E7
:1022E00000AF78607B687B617B691B683B61002382
:1022F000FB600121104807F06FFC03461A463B695A
:102300001A707B6900229A613CF078FBF860FB68E8
:10231000002B07D13CF069FB02460B467969C1E905
:10232000042305E0FB68D3E900237969C1E90423AC
:1023300000BF1837BD4680BD0010025880B584B07C
:1023400000AF78607B68FB60FB681B681B78FB72E2
:10235000FB7A002B05D001224021084807F054FCED
:1023600004E000224021054807F04EFCFB680022F3
:102370009A6100BF1037BD4680BD00BF00180258EB
:1023800080B584B000AF78607B68FB60FB681B6839
:102390001B78FB72FB7A002B05D0012240210848F4
:1023A00007F032FC04E000224021054807F02CFC35
:1023B000FB6800229A6100BF1037BD4680BD00BF98
:1023C0000004025880B584B000AF78607B68FB6081
:1023D000FB681B681B78FB72FB7A002B05D001227F
:1023E0008021084807F010FC04E000228021054805
:1023F00007F00AFCFB6800229A6100BF1037BD4657
:1024000080BD00BF0004025880B584B000AF786082
:102410007B68FB60FB681B681B78FB72FB7A002BF8
:1024200005D001220121084807F0EEFB04E000225C
:102430000121054807F0E8FBFB6800229A6100BF14
:102440001037BD4680BD00BF0010025880B58AB06D
:1024500000AF78607B68002B25D00023BB61002390
:102460007B6100233B610023FB607B687B6207F19B
:102470000C0307F1100207F1140107F118003CF0FA
:10248000F9FB38623B6A002B09D17B6A1B68FB6150
:10249000BA69FB691A607B6A00229A6104E07B6A70
:1024A000034A9A6100E000BF2837BD4680BD00BFE7
:1024B0000000018080B58AB000AF78607B68002B97
:1024C00025D00023BB6100237B6100233B610023F7
:1024D000FB607B687B6207F10C0307F1100207F1D8
:1024E000140107F118003CF0C5FB38623B6A002B71
:1024F00009D17B6A1B68FB617A69FB691A607B6A98
:1025000000229A6104E07B6A034A9A6100E000BFFE
:102510002837BD4680BD00BF0000018080B58AB06D
:1025200000AF78607B68002B25D00023BB610023BF
:102530007B6100233B610023FB607B687B6207F1CA
:102540000C0307F1100207F1140107F118003CF029
:1025500091FB38623B6A002B09D17B6A1B68FB61E7
:102560003A69FB691A607B6A00229A6104E07B6A1F
:10257000034A9A6100E000BF2837BD4680BD00BF16
:102580000000018080B58AB000AF78607B68002BC6
:1025900025D00023BB6100237B6100233B61002326
:1025A000FB607B687B6207F10C0307F1100207F107
:1025B000140107F118003CF05DFB38623B6A002B08
:1025C00009D17B6A1B68FB61FA68FB691A607B6A48
:1025D00000229A6104E07B6A034A9A6100E000BF2E
:1025E0002837BD4680BD00BF0000018080B58AB09D
:1025F00000AF78607B68002B27D00023BB610023ED
:102600007B6100233B610023FB607B687B6207F1F9
:102610000C0307F1100207F1140107F118003CF058
:1026200029FB38623B6A002B0BD17B6A1B68FB617C
:10263000BA697B69D21AFB691A607B6A00229A61C7
:1026400004E07B6A034A9A6100E000BF2837BD4678
:1026500080BD00BF0000018080B485B000AF78600D
:102660007B68002B0CD07B68FB60FB681B68BB6041
:10267000064B1A68BB681A60FB6800229A6100E08A
:1026800000BF1437BD465DF8047B704764C3042463
:10269000B0B5A4B000AF786039600023C7F88C30C3
:1026A00096E0FEF721FDC7F88800D7F888304D4A3C
:1026B0000021002015F1DCFBC7F88400D7F8843036
:1026C000013318463CF05EFEC7F88000D7F8803032
:1026D000002B0AD0D7F8843001331946D7F8883058
:1026E000404AD7F8800015F1C3FBD7F88030FB6073
:1026F000D7F888303B6106233B810023BB613A4B0E
:102700003B6200237B6220203CF03CFEF86707F12F
:10271000080300211846FEF769FD0246FB6F1A60A8
:1027200000F0A6FD02460B46F96FC1E90423FB6FDA
:1027300000229A61FB6F0022DA60FB6F2A4A5A601E
:10274000FB6F00229A6008203CF01CFEB867FA6814
:10275000BB6F5A60FB681846FDF732FF03461AB29A
:10276000BB6F1A8007F1280318463CF03DFDFB6F54
:10277000BB62BB6F00221C461546C7E90C4502230D
:1027800087F84030D7F888303B650123FB873B89C9
:10279000A7F858304FF6FF73A7F86C30BB69BB66DB
:1027A000BB69002B03D00123FB6501237B6607F186
:1027B000280318463CF044FD0C4B1B68BA6A1146CE
:1027C00018463CF079FDD7F88C300133C7F88C30CF
:1027D000D7F88C30312B7FF664AF00231846903742
:1027E000BD46B0BD309111085B1F0008BC0A002433
:1027F000B0B5ADF54C7D00AF0023C7F82C330021F8
:10280000C148FEF77FFCC7F82803D7F82833002B10
:1028100002D1BE4B00F0A3BC0021BD48FEF772FC04
:102820000346BC4A1360BB4B1B68002B02D1B74B5D
:1028300000F095BC0021B848FEF764FCC7F82403FB
:10284000D7F82433002B02D1B04B00F088BCB34B37
:10285000C7F8F4320023C7F800330023C7F8FC326E
:10286000FEF742FC0346C7F8F8320123A7F8F0321E
:102870004FF6FF73A7F80433A94BC7F80833A94BE9
:10288000C7F80C3307F53C73D7F828131846FFF741
:102890006DFAC7F82003D7F82033002B02D19B4BE9
:1028A00000F05DBCA04BC7F8D4328023C7F8E032FB
:1028B0000023C7F8DC32FEF717FC0346C7F8D8320E
:1028C0000723A7F8D0324FF6FF73A7F8E4320023AE
:1028D000C7F8E8320023C7F8EC3207F53473D7F8AD
:1028E00028131846FFF742FAC7F82003D7F8203319
:1028F000002B02D1854B00F032BC0023C7F82C33EB
:1029000035E08A4AD7F82C3352F82330C7F8B4326E
:102910000023C7F8C0320023C7F8BC32FEF7E4FB3F
:102920000346C7F8B8320623A7F8B0324FF6FF7354
:10293000A7F8C4320023C7F8C8320023C7F8CC3246
:10294000D7F82C33643307F52C71D7F828231846B1
:10295000FFF7A2FAC7F81003D7F81033002B01D104
:102960006A4BFCE3D7F82C330133C7F82C33D7F884
:102970002C33092BC5D900216D48FEF7C3FBC7F8DE
:102980001C03D7F81C33002B01D1604BE7E3694BE4
:10299000C7F894320023C7F8A0320023C7F89C324E
:1029A000FEF7A2FB0346C7F898320723A7F8903238
:1029B0000023A7F8A432604BC7F8A8320023C7F859
:1029C000AC3207F52473D7F81C131846FFF7CEF97D
:1029D000C7F82003D7F82033002B01D14B4BBEE3BF
:1029E000564BC7F874320023C7F880320023C7F86B
:1029F0007C32FEF779FB0346C7F878320723A7F845
:102A000070320023A7F884324D4BC7F88832002378
:102A1000C7F88C3207F51C73D7F81C131846FFF75C
:102A2000A5F9C7F82003D7F82033002B01D1374B85
:102A300095E3444BC7F854320023C7F860320023B3
:102A4000C7F85C32FEF750FB0346C7F8583207233D
:102A5000A7F850320023A7F864323B4BC7F868321E
:102A60000023C7F86C3207F51473D7F81C13184607
:102A7000FFF77CF9C7F82003D7F82033002B01D1EA
:102A8000224B6CE307F54C73A3F580732F4A5A6011
:102A900007F54C73A3F5807300221A6107F54C7398
:102AA000A3F580730022DA60FEF71EFB024607F5ED
:102AB0004C73A3F580739A6007F54C73A3F580738C
:102AC00007221A8007F54C73A3F5807300229A82BF
:102AD00007F54C73A3F580731D4A9A6107F54C7393
:102AE000A3F580730022DA6107F50C73D7F81C1385
:102AF0001846FFF73BF9C7F82003D7F82033002B1F
:102B000028D1024B2BE300BF449111080000018043
:102B100058911108BC0A00246C9111088491110885
:102B2000891F0008E91F00088C911108C88F11083F
:102B30009C911108AC9111084D240008C491110812
:102B4000B5240008D49111081D250008F091110842
:102B50008525000807F54C73A3F59073CD4A5A609C
:102B600007F54C73A3F5907300221A6107F54C73B7
:102B7000A3F590730022DA60FEF7B6FA024607F575
:102B80004C73A3F590739A6007F54C73A3F590739B
:102B900007221A8007F54C73A3F5907300229A82DE
:102BA00007F54C73A3F59073BB4A9A6107F54C7314
:102BB000A3F590730022DA6107F50473D7F81C13AC
:102BC0001846FFF7D3F8C7F82003D7F82033002BB7
:102BD00001D1B24BC3E207F54C73A3F5A073B04A21
:102BE0005A6007F54C73A3F5A07300221A6107F52C
:102BF0004C73A3F5A0730022DA60FEF775FA024663
:102C000007F54C73A3F5A0739A6007F54C73A3F511
:102C1000A0730A221A8007F54C73A3F5A073002253
:102C20009A8207F54C73A3F5A0739E4A9A6107F543
:102C30004C73A3F5A0730022DA6107F5F873D7F897
:102C40001C131846FFF792F8C7F82003D7F8203373
:102C5000002B01D1914B82E207F5807318463CF0BE
:102C60005FFA914BC7F8183308203CF08BFBC7F88C
:102C70001403D7F81433D7F818235A60D7F8180379
:102C8000FDF79EFC03461AB2D7F814331A800120D0
:102C90003CF078FB03461A4607F54C73A3F50C731A
:102CA0001A60D7F81433DA171C46154607F54C732B
:102CB000A3F50C73C3E9024507F54C73A3F50C7338
:102CC0000122DA8207F54C73A3F50C7302221A76FF
:102CD000FEF70AFA024607F54C73A3F50C739A62E5
:102CE00007F54C73A3F50C73704AC3F8E82007F599
:102CF000807318463CF03EFA6D4B1A6807F54C732A
:102D0000A3F50C731B68194610463CF0D5FA07F57D
:102D10004C73A3F51473674A5A6007F54C73A3F517
:102D2000147300221A6107F54C73A3F51473002283
:102D3000DA60FEF7D9F9024607F54C73A3F5147370
:102D40009A6007F54C73A3F5147303221A8007F5F4
:102D50004C73A3F5147300229A8207F54C73A3F504
:102D60001473554A9A6107F54C73A3F51473002246
:102D7000DA6107F1E003D7F824131846FEF7F6FFEF
:102D8000C7F82003D7F82033002B01D1434BE6E1ED
:102D900007F54C73A3F51C73484A5A6007F54C734A
:102DA000A3F51C7300221A6107F54C73A3F51C737D
:102DB0000022DA60FEF798F9024607F54C73A3F596
:102DC0001C739A6007F54C73A3F51C7303221A80D9
:102DD00007F54C73A3F51C7300229A8207F54C7318
:102DE000A3F51C73364A9A6107F54C73A3F51C735F
:102DF0000022DA6107F1C003D7F824131846FEF762
:102E0000B5FFC7F82003D7F82033002B01D1234B9F
:102E1000A5E107F54C73A3F524732A4A5A6007F518
:102E20004C73A3F5247300221A6107F54C73A3F5C4
:102E300024730022DA60FEF757F9024607F54C7357
:102E4000A3F524739A6007F54C73A3F5247303224A
:102E50001A8007F54C73A3F5247300229A8207F5B4
:102E60004C73A3F52473184A9A6107F54C73A3F5C4
:102E700024730022DA6107F1A003D7F8241318465F
:102E8000FEF774FFC7F82003D7F82033002B1DD1BD
:102E9000024B64E10C921108ED250008000001804E
:102EA00020921108592600082C921108912600083A
:102EB000BC0A0024449211082D20000850921108E9
:102EC000912000085C921108F520000807F54C736A
:102ED000A3F52C73A44A5A6007F54C73A3F52C7321
:102EE00000221A6107F54C73A3F52C730022DA60F7
:102EF000FEF7FAF8024607F54C73A3F52C739A60B7
:102F000007F54C73A3F52C7303221A8007F54C7355
:102F1000A3F52C7300229A8207F54C73A3F52C734A
:102F2000924A9A6107F54C73A3F52C730022DA617B
:102F300007F18003D7F824131846FEF717FFC7F8E8
:102F40002003D7F82033002B01D1894B07E107F587
:102F50004C73A3F53473874A5A6007F54C73A3F595
:102F6000347300221A6107F54C73A3F53473002201
:102F7000DA60FEF7B9F8024607F54C73A3F534732F
:102F80009A6007F54C73A3F5347303221A8007F592
:102F90004C73A3F534734FF6FF729A8207F54C73A6
:102FA000A3F53473744A9A6107F54C73A3F534732F
:102FB000724ADA6107F16003D7F824131846FEF766
:102FC000D5FEC7F82003D7F82033002B01D1684B7A
:102FD000C5E007F54C73A3F53C73694A5A6007F5E1
:102FE0004C73A3F53C7300221A6107F54C73A3F5EB
:102FF0003C730022DA60FEF777F8024607F54C735F
:10300000A3F53C739A6007F54C73A3F53C73032258
:103010001A8007F54C73A3F53C734FF6FF729A8242
:1030200007F54C73A3F53C73564A9A6107F54C7348
:10303000A3F53C73544ADA6107F14003D7F824132F
:103040001846FEF793FEC7F82003D7F82033002B6D
:1030500001D1474B83E007F54C73A3F544734B4A0A
:103060005A6007F54C73A3F5447300221A6107F503
:103070004C73A3F544730022DA60FEF735F802467C
:1030800007F54C73A3F544739A6007F54C73A3F5E9
:10309000447303221A8007F54C73A3F544734FF66B
:1030A000FF729A8207F54C73A3F54473384A9A610C
:1030B00007F54C73A3F54473364ADA6107F1200330
:1030C000D7F824131846FEF751FEC7F82003D7F8A7
:1030D0002033002B01D1264B41E007F54C73A3F5BB
:1030E0004C732D4A5A6007F54C73A3F54C730022BC
:1030F0001A6107F54C73A3F54C730022DA60FDF7F3
:10310000F3FF024607F54C73A3F54C739A6007F57D
:103110004C73A3F54C7303221A8007F54C73A3F587
:103120004C734FF6FF729A8207F54C73A3F54C73FC
:103130001A4A9A6107F54C73A3F54C73184ADA6181
:103140003B46D7F824131846FEF710FEC7F82003B5
:10315000D7F82033002B01D1054B00E0002318469F
:1031600007F54C77BD46B0BD68921108592100089B
:103170000000018074921108BD2100083D23000861
:10318000809211081D220008812300088C921108EA
:103190007D220008C523000898921108DD2200084E
:1031A0000924000880B500AF14F1C4FC034618469A
:1031B00080BD80B584B000AFF860B9607A607A688D
:1031C000B968F86815F15BF8034618461037BD4634
:1031D00080BD80B584B000AFF860B9607A607A686D
:1031E000B968F868FDF79CF9034618461037BD46E4
:1031F00080BD80B584B000AFF860B9607A607A684D
:10320000B968F86814F1A8FF034618461037BD46A0
:1032100080BD80B584B000AFF860B9607A607A682C
:10322000B968F86814F16EFF034618461037BD46BA
:1032300080BD80B582B000AF7860786814F18EFBF5
:10324000034618460837BD4680BD80B582B000AF42
:103250007860786814F18AFB00BF0837BD4680BDEE
:1032600080B500AF19F080F90346184680BD000014
:103270002DE9B04386B000AF22A3D3E90023C7E90C
:1032800004230023FB6019F06FF9B8601C4B1B6826
:10329000BA689A4228D01A4B1B68BA689A4205D974
:1032A000174B1B68BA68D31AFB600AE0144B1B6803
:1032B000BA689A4205D2124B1B68BA68D31A013B0E
:1032C000FB600F4ABB681360FB6842F2107202FB9E
:1032D00003F300221C461546D7E9042312EB040829
:1032E00043EB0509C7E90489D7E90423C7E90023AB
:1032F000D7E90023104619461837BD46BDE8B0830C
:10330000E80A002400F09E332E8CDB0180B584B0E7
:1033100000AF786039603868FDF752F90346FB600A
:103320007B68B3F900301A46FB6893420FD17B6883
:103330005B68002B0BD07B685B68FA6839681846BD
:1033400014F1E0FE0346002B01D1012300E000232D
:1033500018461037BD4680BD80B584B000AFF86018
:10336000B9607A601249F868FFF7D0FF0346002B76
:1033700008D00F49B868FFF7C9FF0346002B01D0FA
:10338000012310E00B49F868FFF7C0FF0346002B4C
:1033900008D00949B868FFF7B9FF0346002B01D0F0
:1033A000012300E0002318461037BD4680BD00BF52
:1033B000A4921108AC921108B492110880B58AB099
:1033C00002AFF8607A603B600B467B81FB68C82BDC
:1033D0002AD9FB68BB61BB695B68002B03D0BB6962
:1033E0005B68B8699847BB691B683B613BF006FBAB
:1033F00078617B69002B06D13BF0F7FA02460B4659
:103400007969C1E900237B69D3E90023B969C1E97E
:103410000423BB69D3E90423B96989690091396937
:1034200038683BF00FFD27E0FB686D2B24D8FB6864
:10343000643B134A52F823200132114941F82320FA
:10344000FB68643B9B000E4A13443B613BF0D6FA99
:10345000F861FB69002B06D13BF0C7FA02460B4628
:10346000F969C1E90023FB69D3E900230021009138
:10347000396938683BF0E6FC00BF2037BD4680BDA7
:10348000C00A002480B588B002AFF8607A603B6063
:103490000B467B81FB687B617B691B683B617B69B9
:1034A0007A689A617B6903F110027B690C3300939F
:1034B00000233969386A3BF09BFC7B699B68002BD1
:1034C00003D07B699B687869984700BF1837BD4671
:1034D00080BD80B485B000AFF860B9601346FB7161
:1034E00000BF1437BD465DF8047B704780B485B0DB
:1034F00000AF0146C7E900230B46FB81D7E9002353
:10350000134301D03B6800E0002318461437BD4642
:103510005DF8047B7047000080B485B000AF0146C1
:10352000C7E900230B46FB81D7E90023B2F5EB7F07
:1035300073F1000304D23B68DB00054A134400E04A
:10354000002318461437BD465DF8047B704700BF62
:1035500064EC110880B588B002AF0146C7E90023CA
:103560000B46FB730A4B7B61FB7B002B01D1094BA4
:103570007B617B6A01933B6A00937B69064AD7E9CA
:10358000000100F00BF800BF1837BD4680BD00BF3A
:10359000E4921108EC921108F49211080CB480B571
:1035A000B6B000AFC7E900010023C7F8D43007F177
:1035B000E403C7F8D030D7F8D43007F10802D018A8
:1035C000D7F8D430C3F1C8031946D7F8D030D7F8AC
:1035D000E02014F1F5FC0246D7F8D4301344C7F8C4
:1035E000D43007F10803184614F1D2FB00BFD837D6
:1035F000BD46BDE8804002B0704700002DE9F04FA5
:1036000097B000AFF862B96200237B65434BD3F8F3
:1036100068310022BB61FA61D7E90623C7E90E23AE
:10362000FB6A1B6800223B617A61D7E90423C7E982
:103630000C23FFF715FE03460022BB60FA60D7E9B2
:103640000223C7E91223D7E90C01D7E90E23861814
:103650003E6041EB03037B60D7E90023C7E91023F9
:10366000D7E91201D7E90C23904271EB030307DA83
:10367000D7E9122312F1FF3A43F1000BC7E912AB6D
:10368000D7E91001D7E90C23904271EB030307DA65
:10369000D7E9102312F1FF3843F10009C7E9108977
:1036A000D7E91201D7E91023904271EB03032FDB16
:1036B00001237B65D7E91001D7E90E23841841EB7C
:1036C0000305C7E91045D7E91001D7E91223904255
:1036D00071EB0303EEDBD7E91001D7E90E23841A5F
:1036E0003C6261EB03037B624FF0FF324FF000035B
:1036F000D7E90801FDF736FAFB6A1A60D7E910012D
:103700004FF0FF324FF00003FDF72CFABB6A1A604E
:103710007B6D18465C37BD46BDE8F08F08BC1108CC
:103720002DE9B04F90B000AFF861B961FFF798FD97
:10373000034600223B617A61D7E90423C7E90E23DF
:10374000FB690022BB60FA60D7E90223C7E90823BE
:10375000BB6900223B607A60D7E90023C7E90C23EC
:103760004FF001024FF00003C7E90A23D7E90E0129
:10377000D7E90823904271EB030307DAD7E90E2358
:1037800012F1FF3A43F1000BC7E90EABD7E90C0188
:10379000D7E90823904271EB030307DAD7E90C233A
:1037A00012F1FF3843F10009C7E90C89D7E90E018E
:1037B000D7E90C23904271EB030308DAD7E90C0137
:1037C000D7E90E23841A61EB0305C7E90A45BB6AF2
:1037D00018464037BD46BDE8B08F000080B584B0C4
:1037E00000AF786039607B68D3F82431FB600C4B04
:1037F0009B683A689A4206D03BF0F7F83B68094A62
:10380000FFF7CCFE03E0FB68022283F82C210022A4
:103810000121054819F05CFB00BF1037BD4680BD93
:1038200008BC110850931108B0A3042480B584B0DB
:1038300000AF78607B68D3F82431FB60FB6804221A
:1038400083F82C2100220421034819F041FB00BF1A
:103850001037BD4680BD00BFB0A30424B0B584B00E
:1038600000AF78607B68D3F82431FB60FB6893F885
:103870002C31032B08D1FB68D3E94C23541C43F1B2
:103880000005FB68C3E94C4500220221034819F0FA
:103890001FFB00BF1037BD46B0BD00BFB0A304245E
:1038A00080B483B000AF00237B6016E07B684FF4E8
:1038B000A87202FB03F30E4A13443B603B6893F883
:1038C0002C31002B06D13B6893F83831FF2B01D106
:1038D0007B6807E07B6801337B607B68012BE5DD5B
:1038E0004FF0FF3318460C37BD465DF8047B704738
:1038F00008A1042480B584B000AF1623BB60002368
:10390000FB6034E0FB684FF4A87202FB03F31C4A2F
:1039100013447B607B689B6B012B25D1194B9B6803
:103920007A681946184815F0ABFDB860BB68002BE3
:1039300002D0BB68482B17D17B680022C3F83C211A
:10394000FB684FF4A87202FB03F30D4A1A447B682C
:10395000C3F824217B68012283F82C21FB68DAB2AA
:103960007B6883F8382105E0FB680133FB60FB6866
:10397000012BC7D9BB6818461037BD4680BD00BFB4
:1039800008A1042408BC11089CB2042480B58AB0A4
:1039900006AF4FF0FF33FB603A46642301214B48EA
:1039A00015F03EFAB860BB68002B07D03BF01DF85D
:1039B000474AFFF7F3FD4FF0FF3382E0454BD3F862
:1039C000A432002B0BD1434BD3F8A432FB60414B04
:1039D000D3F8A43201333F4AC2F8A43203E0FFF720
:1039E0005FFF0346FB60FB68B3F1FF3F07D13AF08E
:1039F000FCFF394AFFF7D2FD4FF0FF3361E0FB686F
:103A00004FF4A87202FB03F3324A13447B607968D7
:103A10004FF496730593314B0493002303934FF4B3
:103A200000530293802301930023009300232C4A28
:103A3000264815F0F9FDB860BB68002B07D03AF0B6
:103A4000D4FF284AFFF7AAFD4FF0FF3339E0264B99
:103A500099687A68254B009305231C4815F0BAFC39
:103A6000B860BB68002B07D03AF0BFFF204AFFF7D1
:103A700095FD4FF0FF3324E07B681E49184615F092
:103A800035FFB860BB68002B07D03AF0AEFF1A4A8A
:103A9000FFF784FD4FF0FF3313E0FB684FF4A8728B
:103AA00002FB03F30B4A1A447B68C3F824217B68AA
:103AB000012283F82C21FB68DAB27B6883F8382175
:103AC000002318461037BD4680BD00BF9CB20424B9
:103AD0007893110808A10424909311082D38000848
:103AE000B0931108C093110808BC1108DD37000815
:103AF000E09311085D380008009411082DE9B043E7
:103B000084B000AF0023BB6055E0BB684FF4A872DF
:103B100002FB03F32C4A13447B607B6893F82C313F
:103B2000022B45D17B684FF0FF31184615F014FC8D
:103B30000346FB60FB68002B0AD07B68052283F8F4
:103B40002C213AF052FF214AFFF728FDFB6836E0AE
:103B5000BB68DA171C461546204629463BF0CCF9CF
:103B60000346FB60FB68002B19D03AF03EFF184A71
:103B7000FFF714FD7B686421184615F035FE0346F7
:103B8000FB607B68184615F0CDFC0346FB60BB6804
:103B9000DA1798469146404649463BF0C9F97B689A
:103BA000032283F82C210B4B01221A60FFF7A2FE9F
:103BB000BB680133BB60BB68012BA6DDFB68184600
:103BC0001037BD46BDE8B08308A104242494110831
:103BD00044941108D8A30424B0B584B000AF786031
:103BE0007B6893F82C31032B04D07B6893F82C313D
:103BF000042B47D17B686421184615F0F5FD034678
:103C0000FB607B68002283F82C21214B00221A6084
:103C100000224FF480411F4805F0F6FF00220221E8
:103C20001D4805F0F1FF7B68184615F07BFC034644
:103C3000FB601A4B9B681946194815F0AFFC034608
:103C4000FB607B6893F83831DBB200221C461546D6
:103C5000204629463BF06CF97B68184615F088FD34
:103C60000346FB607B68FF2283F838210D4BD3F8B5
:103C7000A432002B06DD0B4BD3F8A432013B094ADA
:103C8000C2F8A432002318461037BD46B0BD00BFAD
:103C9000D8A30424000402580010025808BC1108DC
:103CA0009CB2042408A1042480B584B000AF002392
:103CB000FB600023BB6013E0BB684FF4A87202FBFB
:103CC00003F30B4A13447B607B6893F82C31042B7D
:103CD00003D17868FFF780FFF860BB680133BB60F1
:103CE000BB68012BE8DDFB6818461037BD4680BD78
:103CF00008A10424B0B584B000AF0023FB6000230A
:103D0000BB6026E0BB684FF4A87202FB03F3154AC0
:103D100013447B607B6893F82C31032B16D1BB686E
:103D2000DA171C46154622462B4600203BF03AF98E
:103D30000346FB60FB68002B08D03AF056FE0A4AA7
:103D4000FFF72CFC7868FFF747FFF860BB6801338A
:103D5000BB60BB68012BD5DDFB6818461037BD463C
:103D6000B0BD00BF08A10424889411082DE9B04F0C
:103D700084B000AF0023FB600023BB605FE0BB6842
:103D80004FF4A87202FB03F3314A13447B607B6853
:103D900093F82C31032B4FD17B68D3E94C23134389
:103DA0004AD07B68D3E94C23541E43F1FF357B682E
:103DB000C3E94C457B68D3E94C23134307D0244A1D
:103DC000BB68134403F5287301221A7006E0204AE9
:103DD000BB68134403F5287300221A70BB68DA1716
:103DE0009846914642464B4600203BF0BDF80346BC
:103DF000FB60FB68002B08D03AF0F7FD154AFFF78F
:103E0000CDFB7868FFF7E8FE16E0BB68DA179A4644
:103E1000934652465B4600203BF0C4F80346FB60E5
:103E2000FB68002B08D03AF0E0FD0B4AFFF7B6FB29
:103E30007868FFF7D1FEF860BB680133BB60BB68F0
:103E4000012B9CDDFB6818461037BD46BDE8B08FDE
:103E500008A1042488941108CC94110880B483B07C
:103E600000AF00237B600CE00B4A7B68134403F532
:103E700028731B78012B01D1012306E07B680133F5
:103E80007B607B68012BEFDD002318460C37BD46B5
:103E90005DF8047B704700BF08A1042480B58CB096
:103EA00002AF00233B6200237B620023FB612422DC
:103EB0004F49504818F024FF0023BB6100237B6169
:103EC000FFF7CEF90346FB604B4BD3F86821FB6844
:103ED0001344BB60494B0022C3F8A422FFF756FDF0
:103EE000F861FB69B3F1FF3F05D13AF07EFD444A2A
:103EF000FFF754FB79E0414BD3F8A4323B6207F162
:103F0000080207F10C0311461846FFF777FB3D4BFB
:103F10001B68002B10D07B6A01337B627B6A142BF9
:103F20000ADD00237B620221374805F086FE4FF44C
:103F30008041364805F081FE00237B60FB68BA684B
:103F400011461846FFF7ECFB38613A1D3B690093B8
:103F5000134601224FF0FF31264818F063FF7861C5
:103F60007B6803F00403002B0CD0FFF79DFEFFF7E6
:103F7000C1FC0346B3F1FF3F04D13AF036FD204ABD
:103F8000FFF70CFB07F1080207F10C031146184676
:103F9000FFF734FB0346002B01D03BF021F87B6890
:103FA00003F00103002B01D0FFF7A8FDFFF7A2FEED
:103FB0007B6803F00203002B04D1FFF74FFF034699
:103FC000002B01D0FFF7D2FE0C4BD3F8A432002B0C
:103FD0009DD1FFF7DBFC0346B3F1FF3F97D13AF0E9
:103FE00004FD074AFFF7DAFA91E72837BD4680BD9E
:103FF0000C951108B0A3042408BC110808A10424DE
:1040000020951108D8A30424001002580004025877
:1040100080B584B000AFC7E900013AF0E6FC094A78
:10402000FFF7BCFA3B684FF4A87202FB03F3064AA1
:104030001344FB60F868FFF7CFFD00BF1037BD46A3
:1040400080BD00BF3C95110808A1042480B582B052
:1040500000AF7860FCF7D2FFFFF720FF00BF083702
:10406000BD4680BD80B58CB002AFF860C7E90023C3
:10407000BB6B00221A603B684FF4A87202FB03F38B
:104080004F4A13447B6200237B614FF0FF333B6256
:104090007B6A002B03D07B6A9B6B052B01D000232E
:1040A00089E07B6AD3F83C31002B04D07B6AD3F8DB
:1040B0003C31BB6127E07B6A07F1180100221846FA
:1040C00015F0D0FB03463B623B6A012B09DD3AF059
:1040D0008CFC3C4AFFF762FA786AFFF77DFD00230B
:1040E00069E03B6A012B01D1002364E0BA697B6A75
:1040F000C3F83C217B6A0022C3F84821BB695A6A95
:104100007B6AC3F840217B6AD3F84831FB61B86908
:1041100007F1140300937B6B3A6BF96914F062FFAB
:1041200003463B623B6A002B02D17B69002B1BD10B
:1041300007F11803184615F067F87B69002B09D1C1
:104140003AF053FCD7E90023CDE900231E4AFFF7DC
:1041500025FA04E03AF049FC1C4AFFF71FFA786A96
:10416000FFF73AFD002326E07B69FA691344FB61FF
:104170007A69BB6B1A60BB695B6AFA699A4215D3AC
:10418000BB69DA697B6AC3F83C2107F1180318465A
:1041900015F03AF87B6A0022C3F848217B697A6BF4
:1041A0009A4201D9012306E0002304E07B6AFA6900
:1041B000C3F84821012318462837BD4680BD00BFFB
:1041C00008A1042468951108809511089895110894
:1041D00080B58CB002AFF860C7E9002300237B6292
:1041E000BB6B00221A603B684FF4A87202FB03F31A
:1041F000274A13443B6207F118014FF0FF3338227E
:10420000244814F04FFEF861FB69002B01D07B6A53
:1042100039E0B8694FF0FF3300931E4B7A6B396B6E
:1042200014F086FEBB6907F114021146184614F01B
:10423000FDFEF861FB69002B03D17A697B6B9A4222
:1042400006D03AF0D2FB144AFFF7A8F97B6A1AE0CD
:104250007B691A46BB6B1A603B6A07F1180164223E
:10426000184615F087FBF861FB69002B08D007F1B1
:104270001803184614F0C8FF386AFFF7ADFC01E0D8
:1042800001237B627B6A18462837BD4680BD00BF8C
:1042900008A1042460B20424A895110880B485B054
:1042A00000AF78600023FB60FB6818461437BD46FA
:1042B0005DF8047B704780B500AF16F00BFB00BFC4
:1042C00080BD000080B584B000AF00F009FB3D4B1D
:1042D0005B6903F40033002B1BD1BFF34F8F00BF8A
:1042E000BFF36F8F00BF374B0022C3F85022BFF3DC
:1042F0004F8F00BFBFF36F8F00BF324B5B69314AF6
:1043000043F400335361BFF34F8F00BFBFF36F8F90
:1043100000E000BF2B4B5B6903F48033002B38D1E6
:10432000284B0022C3F88420BFF34F8F00BF254BDA
:10433000D3F88030FB60FB685B0BC3F30E03BB60FC
:10434000FB68DB08C3F309037B60BB685A0143F6D3
:10435000E07313407A6892071A491343C1F8603238
:104360007B685A1E7A60002BEFD1BB685A1EBA6078
:10437000002BE5D1BFF34F8F00BF124B5B69114A91
:1043800043F480335361BFF34F8F00BFBFF36F8F90
:1043900000E000BF01F044F840F6C41001F09CF8C2
:1043A00000F012F800F068F900F080F800F0A4F8CE
:1043B00000F0EEF800F0FEF800F012F9FFF77BFFD6
:1043C00000BFFDE700ED00E080B59CB000AF07F155
:1043D00024034C220021184613F1BEFE3B1D20226F
:1043E0000021184613F1B8FE022005F0B9FC0023A5
:1043F0003B602C4BDB6A2B4A23F00103D362294B31
:10440000DB6A03F001033B60274B9B6923F44043C5
:10441000254A43F400439361234B9B6903F44043D3
:104420003B603B6800BF204B9B6903F40053B3F52E
:10443000005FF8D122237B6201233B6340237B632F
:104440000123FB630023BB6407F12403184605F036
:10445000C1FC0346002B01D000F0A2FA3F237B6091
:104460000023BB600023FB6000233B6100237B61D2
:104470000023BB610023FB6100233B623B1D012144
:10448000184606F001F90346002B01D000F088FA27
:104490004FF480220021002006F0ACFA00BF7037F4
:1044A000BD4680BD000400580048025880B500AFEA
:1044B0000D4B0E4A1A600C4B00225A600A4B002228
:1044C0009A60094B0A4ADA60074B0A4A1A61064B9E
:1044D00028225A61044801F09BF90346002B01D0C1
:1044E00000F05EFA00BF80BD14A40424001002484E
:1044F00078BD110888BD110880B500AF1E4B1F4A5A
:104500001A601F4B00221A701D4B80225A701C4BE0
:10451000E1229A701A4B0022DA70194B00221A71AC
:10452000174B00225A71144B154A5A60124B012244
:104530001A72114B134ADA600F4B134A1A610E4B71
:104540004FF4C0625A610C4803F000FC0346002B94
:1045500001D000F025FA382200210C4813F1FCFDAF
:104560000A4B21221A60094B4FF440325A61074B23
:1045700000221A6100BF80BD74A4042400800240A0
:1045800010A604246000023000000230DCA30424E2
:1045900080B500AF064B00221A60054805F08CFB81
:1045A0000346002B01D000F0FBF900BF80BD00BF27
:1045B00024A5042480B500AF074B084A1A60064BB7
:1045C00000225A60044808F0C3FA0346002B01D0C9
:1045D00000F0E6F900BF80BD68A504240018024879
:1045E00080B500AF224B234A1A60214B4FF4E132D1
:1045F0005A601F4B00229A601D4B0022DA601C4B50
:1046000000221A611A4B0C225A61194B00229A613E
:10461000174B0022DA61164B00221A62144B00225B
:104620005A62134B00229A62114808F049FE034671
:10463000002B01D000F0B4F900210D4809F051FE23
:104640000346002B01D000F0ABF90021084809F027
:1046500086FE0346002B01D000F0A2F9044809F0C1
:1046600007FE0346002B01D000F09AF900BF80BD81
:104670007CA504240048004080B58CB000AF07F151
:104680001C0300221A605A609A60DA601A618D4B2E
:10469000D3F8E0308B4A43F00403C2F8E030894B92
:1046A000D3F8E03003F00403BB61BB69854BD3F85A
:1046B000E030844A43F08003C2F8E030814BD3F805
:1046C000E03003F080037B617B697E4BD3F8E03000
:1046D0007C4A43F00103C2F8E0307A4BD3F8E03073
:1046E00003F001033B613B69764BD3F8E030754A38
:1046F00043F00203C2F8E030724BD3F8E03003F02D
:104700000203FB60FB686F4BD3F8E0306D4A43F067
:104710001003C2F8E0306B4BD3F8E03003F0100325
:10472000BB60BB68674BD3F8E030664A43F00803D0
:10473000C2F8E030634BD3F8E03003F008037B604D
:104740007B68604BD3F8E0305E4A43F04003C2F828
:10475000E0305C4BD3F8E03003F040033B603B6853
:10476000002244F2C101584805F04EFA00224FF4ED
:104770008061564805F048FA00224021544805F06F
:1047800043FA00220321534805F03EFA4FF4005348
:10479000FB6100233B6200237B6207F11C03194687
:1047A0004D4805F069F844F2C103FB6101233B6207
:1047B00000237B620023BB6207F11C0319464248B9
:1047C00005F05AF84FF4C043FB6100233B6200231D
:1047D0007B6207F11C0319463E4805F04DF84FF483
:1047E0008063FB6101233B6200237B620023BB6289
:1047F00007F11C031946354805F03EF84023FB61DC
:1048000001233B6200237B620023BB6207F11C0390
:1048100019462F4805F030F88023FB614FF48813C8
:104820003B6200237B6207F11C031946284805F010
:1048300023F84FF48073FB6102233B6200237B6209
:104840000023BB620023FB6207F11C0319462348C7
:1048500005F012F84FF4C053FB6102233B620023C2
:104860007B620023BB620A23FB6207F11C0319462B
:104870001A4805F001F84FF4A043FB6100233B62A6
:1048800000237B6207F11C031946114804F0F4FF72
:104890000323FB6101233B6200237B620023BB6295
:1048A00007F11C0319460B4804F0E6FF0022002123
:1048B000172000F00DFF172000F024FF00BF303755
:1048C000BD4680BD0044025800040258000C025846
:1048D0000018025800100258000802580000025840
:1048E00080B584B000AF3B4600221A605A609A60DF
:1048F000DA6000F015FF01233B7000237B7000237A
:104900007B601F233B7287237B720023BB720023D3
:10491000FB7201233B7301237B730023BB730023D2
:10492000FB733B46184600F033FF01237B70124BAC
:104930007B6010233B7200237B720323FB720023F6
:104940003B7300237B730123BB733B46184600F087
:104950001FFF02237B7007233B720023BB730123DD
:10496000FB733B46184600F013FF042000F0F0FEF6
:1049700000BF1037BD4680BD0000023080B582B058
:1049800000AF78607B681B68044A934201D100F055
:1049900083FD00BF0837BD4680BD00BF001000404A
:1049A00080B400AF72B600BF00BFFDE780B483B033
:1049B00000AF0A4BD3F8F430084A43F00203C2F8C0
:1049C000F430064BD3F8F43003F002037B607B68CD
:1049D00000BF0C37BD465DF8047B704700440258A9
:1049E00080B485B000AF78607B681B680B4A934247
:1049F0000ED10B4BD3F8DC30094A43F01003C2F858
:104A0000DC30074BD3F8DC3003F01003FB60FB68AD
:104A100000BF1437BD465DF8047B704700100248A4
:104A20000044025880B483B000AF78607B681B6894
:104A3000084A934207D1084BD3F8DC30064A23F0EA
:104A40001003C2F8DC3000BF0C37BD465DF8047BB4
:104A5000704700BF001002480044025880B58EB075
:104A600000AF786007F1240300221A605A609A6050
:104A7000DA601A617B681B685D4A934240F0B3803C
:104A80005C4BD3F8D8305B4A43F40043C2F8D830CB
:104A9000584BD3F8D83003F400433B623B6A554B84
:104AA000D3F8D830534A43F48033C2F8D830514B4E
:104AB000D3F8D83003F48033FB61FB694D4BD3F856
:104AC000D8304C4A43F40033C2F8D830494BD3F8BD
:104AD000D83003F40033BB61BB69464BD3F8E030F8
:104AE000444A43F00403C2F8E030424BD3F8E030CC
:104AF00003F004037B617B693E4BD3F8E0303D4A11
:104B000043F00103C2F8E0303A4BD3F8E03003F051
:104B100001033B613B69374BD3F8E030354A43F042
:104B20000203C2F8E030334BD3F8E03003F0020365
:104B3000FB60FB682F4BD3F8E0302E4A43F0400374
:104B4000C2F8E0302B4BD3F8E03003F04003BB60F9
:104B5000BB6832237B620223BB620023FB62032318
:104B60003B630B237B6307F124031946224804F0BF
:104B700083FE86237B620223BB620023FB62032346
:104B80003B630B237B6307F1240319461B4804F0A6
:104B900073FE4FF400537B620223BB620023FB626F
:104BA00003233B630B237B6307F12403194614485B
:104BB00004F062FE4FF420537B620223BB620023A9
:104BC000FB6203233B630B237B6307F1240319463A
:104BD0000C4804F051FE002207213D2000F078FD32
:104BE0003D2000F08FFD00BF3837BD4680BD00BFBF
:104BF0000080024000440258000802580000025899
:104C0000000402580018025880B485B000AF7860E4
:104C10000A4BD3F8DC30094A43F02003C2F8DC30F9
:104C2000064BD3F8DC3003F02003FB60FB6800BFC9
:104C30001437BD465DF8047B704700BF004402583E
:104C400080B5B4B000AF786007F11003C022002136
:104C5000184613F181FA7B681B68144A934221D1EC
:104C60004FF400324FF00003C7E904230023C7F8D4
:104C7000903007F11003184606F03EF90346002B6A
:104C800001D0FFF78DFE0A4BD3F8DC30084A43F021
:104C90004003C2F8DC30064BD3F8DC3003F04003AD
:104CA000FB60FB6800BFD037BD4680BD00180248DE
:104CB0000044025880B483B000AF78607B681B6802
:104CC000084A934207D1084BD3F8DC30064A23F058
:104CD0004003C2F8DC3000BF0C37BD465DF8047BF2
:104CE000704700BF001802480044025880B5BAB0AF
:104CF00000AF786007F1D40300221A605A609A600E
:104D0000DA601A6107F11003C0220021184613F17E
:104D100023FA7B681B68274A934246D14FF0020270
:104D20004FF00003C7E904230023C7F8883007F1D8
:104D30001003184606F0E0F80346002B01D0FFF7F9
:104D40002FFE1D4BD3F8E8301B4A43F48023C2F8F2
:104D5000E830194BD3F8E83003F48023FB60FB689C
:104D6000154BD3F8E030144A43F00803C2F8E030A2
:104D7000114BD3F8E03003F00803BB60BB684FF47D
:104D80004073C7F8D4300223C7F8D8300023C7F8DF
:104D9000DC300023C7F8E0300723C7F8E43007F120
:104DA000D4031946054804F067FD00BFE837BD4647
:104DB00080BD00BF0048004000440258000C02586B
:104DC00080B590B000AF78607B680F2B27D80022A9
:104DD0007968362000F07CFC362000F093FC294AEC
:104DE0007B681360284BD3F8E830274A43F0100360
:104DF000C2F8E830244BD3F8E83003F01003FB602E
:104E0000FB6807F1100207F114031146184606F07B
:104E100031F8BB6ABB63BB6B002B06D101E00123F9
:104E20002BE005F0FBFFF86304E005F0F7FF034615
:104E30005B00FB63FB6B154AA2FB03239B0C013B4E
:104E40007B63134B134A1A60114B40F2E732DA606E
:104E50000F4A7B6B53600E4B00221A610C4B0022F1
:104E60009A600B4807F05EFF0346002B04D1084808
:104E700007F0BAFF034600E0012318464037BD465D
:104E800080BD00BF380000240044025883DE1B436D
:104E900018A604240010004080B400AF00BFFDE756
:104EA00080B400AF00BFFDE780B400AF00BFFDE7F6
:104EB00080B400AF00BFFDE780B400AF00BFFDE7E6
:104EC00080B400AF00BFBD465DF8047B704780B57D
:104ED00000AF802004F0CBFE00BF80BD80B500AFE6
:104EE000024807F0F9FF00BF80BD00BF18A60424E8
:104EF00080B500AF024803F0D5FA00BF80BD00BF07
:104F000074A4042480B400AF01231846BD465DF8A4
:104F1000047B704780B582B000AF7860396013F1D0
:104F200079F9034616221A604FF0FF331846083706
:104F3000BD4680BD80B582B000AF78604FF0FF31D4
:104F40007868FFF7E7FF00BFFDE780B586B000AFE8
:104F5000F860B9607A6000237B610AE0AFF30080FB
:104F60000146BB685A1CBA60CAB21A707B69013329
:104F70007B617A697B689A42F0DB7B681846183758
:104F8000BD4680BD80B586B000AFF860B9607A607C
:104F900000237B6109E0BB685A1CBA601B78184685
:104FA000AFF300807B6901337B617A697B689A4249
:104FB000F1DB7B6818461837BD4680BD80B483B0EE
:104FC00000AF78604FF0FF3318460C37BD465DF8F0
:104FD000047B704780B483B000AF786039603B6871
:104FE0004FF400525A60002318460C37BD465DF856
:104FF000047B704780B483B000AF7860012318460B
:105000000C37BD465DF8047B704780B485B000AFB7
:10501000F860B9607A60002318461437BD465DF821
:10502000047B704780B586B000AF7860144A154B9A
:10503000D31A7B617B693B61134B1B68002B02D148
:10504000114B124A1A60104B1A687B6813443A6974
:105050009A4207D213F1DEF803460C221A604FF091
:10506000FF3309E0084B1B68FB60074B1A687B683D
:105070001344054A1360FB6818461837BD4680BDC7
:10508000000008240004000064A604244805052448
:1050900080B483B000AF3F4BD3F888303D4A43F42F
:1050A0007003C2F888303C4B1B6803F00F03062BDB
:1050B00007D8394B1B6823F00F03374A43F0070327
:1050C0001360364B1B68354A43F001031360334BC2
:1050D00000221A61314B1A683049314B13400B6082
:1050E0002D4B1B6803F00803002B07D02A4B1B68CD
:1050F00023F00F03284A43F007031360274B0022D5
:105100009A61264B0022DA61244B00221A62234B5B
:10511000244A9A62214B244ADA62204B234A1A63BA
:105120001E4B00225A631D4B204A9A631B4B0022E0
:10513000DA631A4B1D4A1A64184B00225A64174B43
:105140001B68164A23F480231360144B00221A664E
:10515000174B1A68174B1340B3F1005F02D2164B7E
:1051600001221A600D4BD3F8DC300C4A43F0604347
:10517000C2F8DC30094BD3F8DC307B607B680F4B26
:1051800043F2D2021A6000BF0C37BD465DF8047BC3
:10519000704700BF00ED00E00020005200440258BC
:1051A0007FEDF6EA000202020000FF018002010129
:1051B0000010005C0000FFFF088100510040005219
:1051C000DFF834D0FFF764FF0C480D490D4A002387
:1051D00002E0D458C4500433C4188C42F9D30A4AAC
:1051E0000A4C002301E013600432A242FBD313F106
:1051F00017F8FFF767F87047000008240000002444
:1052000038060024E01B1408380600244405052451
:10521000FEE780B483B000AF786039607B68002B14
:105220000BD03B68DB68002B07D03B689B68002BEA
:1052300003D03B681B69002B02D14FF0FF3314E011
:105240003B681A687B689A603B685A687B68DA60DA
:105250003B68DA687B685A613B689A687B681A61C8
:105260003B681A697B689A61002318460C37BD4673
:105270005DF8047B704780B586B000AF786000238E
:10528000FB6000237B6100233B617B685B68002B34
:1052900039D17B689B68002B02D07B689B6898475C
:1052A0007B6820221A6000237B611CE07B685B69BD
:1052B00007F10C021221786998470346002B03DAA4
:1052C0006FF004033B610BE0FB6803F01F037A6996
:1052D0009A4205D17B687A691A6000233B6105E038
:1052E0007B6901337B617B691F2BDFD97B681B687E
:1052F0001F2B02D96FF002033B613B69002B02D1E7
:105300007B6801225A603B6918461837BD4680BD4C
:1053100080B584B000AF78600023FB607B685B6978
:105320007A68106807F10C02012198470346002BA8
:1053300002DA6FF004036EE07B685B697A681068DC
:1053400007F10C02012198470346002B02DA6FF0A7
:10535000040360E0FB6803F00403002B01D1012388
:1053600059E07B685B697A68106807F10C020021DC
:1053700098470346002B02DA6FF004034BE0FB680A
:1053800003F48053002B1BD1FB6803F40053002B64
:1053900006D0FB6803F48073002B01D002233AE0AF
:1053A000FB6803F40053002B01D0032333E0FB68B8
:1053B00003F48073002B01D004232CE005232AE0A2
:1053C0007B685B697A68106807F10C021F219847B7
:1053D0000346002B02DA6FF004031CE0FB6803F4C1
:1053E0008053002B01D1062315E0FB6803F01C035A
:1053F000182B01D102230EE0FB6803F01C03082BDD
:1054000001D1032307E0FB6803F01C03142B01D137
:10541000042300E0052318461037BD4680BD000078
:1054200080B582B000AF032000F047F905F04CFBD7
:105430000246154B9B691B0A03F00F031349CB5C13
:1054400003F01F0322FA03F37B600F4B9B6903F009
:105450000F030E4AD35C03F01F037A6822FA03F3AA
:105460000B4A13600B4A7B6813600F20FFF7A8FC00
:105470000346002B01D0012302E0FFF797FA002337
:1054800018460837BD4680BD0044025898BD110833
:10549000340000243000002480B400AF064B1B7899
:1054A0001A46064B1B681344044A136000BFBD46EE
:1054B0005DF8047B704700BF3C00002468A604240C
:1054C00080B400AF034B1B681846BD465DF8047BF3
:1054D000704700BF68A6042480B584B000AF786030
:1054E000FFF7EEFFB8607B68FB60FB68B3F1FF3F3E
:1054F00005D00A4B1B781A46FB681344FB6000BFBB
:10550000FFF7DEFF0246BB68D31AFA689A42F7D863
:1055100000BF00BF1037BD4680BD00BF3C00002467
:1055200080B400AF034B1B681B0C1846BD465DF8EA
:10553000047B70470010005C80B483B000AF7860DB
:10554000064B5B6823F4600204497B6813434B609D
:1055500000BF0C37BD465DF8047B7047000400585F
:1055600080B485B000AF78607B6803F00703FB6010
:105570000B4BDB68BB60BA684FF6FF031340BB60A0
:10558000FB681A02BB681A43064B1343BB60044A0C
:10559000BB68D36000BF1437BD465DF8047B70471D
:1055A00000ED00E00000FA0580B400AF044BDB68BA
:1055B0001B0A03F007031846BD465DF8047B7047DD
:1055C00000ED00E080B483B000AF0346FB80B7F984
:1055D0000630002B0BDBFB8803F01F020749B7F9ED
:1055E00006305B09012000FA02F241F8232000BFD7
:1055F0000C37BD465DF8047B704700BF00E100E05A
:1056000080B483B000AF03463960FB80B7F9063041
:10561000002B0ADB3B68DAB20C49B7F906301201FD
:10562000D2B20B4483F800230AE03B68DAB208499F
:10563000FB8803F00F03043B1201D2B20B441A762D
:1056400000BF0C37BD465DF8047B704700E100E009
:1056500000ED00E080B489B000AFF860B9607A6016
:10566000FB6803F00703FB61FB69C3F10703042B2D
:1056700028BF0423BB61FB690433062B02D9FB69F5
:10568000033B00E000237B614FF0FF32BB6902FA6D
:1056900003F3DA43BB681A407B699A404FF0FF314D
:1056A0007B6901FA03F3D9437B680B401343184627
:1056B0002437BD465DF8047B704780B582B000AFEB
:1056C00078607868FFF74CFF00BF0837BD4680BDA3
:1056D00080B586B000AF0346B9607A60FB81FFF702
:1056E00063FF78617A68B9687869FFF7B3FF0246AB
:1056F000B7F90E3011461846FFF782FF00BF183782
:10570000BD4680BD80B582B000AF0346FB80B7F9CF
:1057100006301846FFF756FF00BF0837BD4680BD6C
:1057200080B400AFBFF35F8F00BF074B5B6A064AD0
:1057300023F480335362054B00225A6000BFBD46FC
:105740005DF8047B704700BF00ED00E090ED00E0E5
:1057500080B483B000AF78600B4A7B6843F00103EC
:1057600053600A4B5B6A094A43F480335362BFF3C8
:105770004F8F00BFBFF36F8F00BF00BF0C37BD4618
:105780005DF8047B704700BF90ED00E000ED00E0A5
:1057900080B483B000AF78607B685A781B4B9A6006
:1057A0001A4B1B69194A23F001031361174A7B68DE
:1057B0005B68D3607B681B7B1A077B68DB7A1B0600
:1057C0001A437B689B7ADB041A437B685B7B9B04F0
:1057D0001A437B689B7B5B041A437B68DB7B1B045F
:1057E0001A437B685B7A1B021A437B681B7A5B0057
:1057F00013437A6812781146044A0B43136100BFC1
:105800000C37BD465DF8047B704700BF90ED00E0AB
:1058100080B582B000AF78607B68002B01D1012396
:1058200030E07B6893F84D30DBB2002B06D17B680B
:10583000002283F84C207868FFF7D2F87B681B6859
:105840001A68124B13407A6851687A68926811435B
:105850007A68526911437A6812680B431360FFF744
:105860005FFE02467B685A657B6800221A657B688A
:1058700000229A657B68012283F84D207B68012213
:105880001A64002318460837BD4680BD07FCF7FFA1
:1058900080B582B000AF78607B68002B01D1012316
:1058A0001FE07B6801221A647B6800225A877B68AC
:1058B00000229A877B6800221A877B681B681A6817
:1058C0007B681B6822F400421A607868FFF7AAF828
:1058D0007B68002283F84D207B68002283F84C20EF
:1058E000002318460837BD4680BD000080B586B04D
:1058F00000AFF860B9603B601346FB80FB6893F82B
:105900004D30DBB2012B40F01A81FB68022283F894
:105910004D20FB6893F84C30012B01D102231BE191
:10592000FB68012283F84C20FB6800225A87FB6841
:1059300000229A87FB68BA681A63FB683A685A6360
:10594000FB685B6A002B05D1FB889B009AB2FB6861
:10595000DA8702E0FB68FA88DA87FB681B681A6856
:10596000FB681B6822F004021A60FB681B681A6857
:105970007B4B13403B613B69B3F1081F00F0C380D0
:105980003B69B3F1081F00F2C5803B69B3F5002FF6
:1059900000F0B2803B69B3F5002F00F2BB803B6999
:1059A000102B49D83AE03B69183B182B00F2B28023
:1059B00001A252F823F000BF475A0008155B000807
:1059C000155B0008155B0008155B0008155B0008F7
:1059D000155B0008155B0008EB5A0008155B000812
:1059E000155B0008155B0008155B0008155B0008D7
:1059F000155B0008155B0008EB5A0008155B0008F2
:105A0000155B0008155B0008155B0008155B0008B6
:105A1000155B0008155B0008EB5A0008514A3B690A
:105A200022FA03F303F00103002B14BF0123002328
:105A3000DBB2002B07D16DE03B69302B6AD83B69A4
:105A4000182BB0D266E0FB68DA68FB681B68126846
:105A50009A62FB68DA68FB681B685268DA62FB6866
:105A60005B69002B03D0FB685B69082B17D1FB68CF
:105A7000DA68FB681B6892681A63FB68DA68FB687F
:105A80001B68D2685A63FB68DA68FB681B68126996
:105A90009A63FB68DA68FB681B685269DA63FB6823
:105AA0005B69182B03D0FB685B69082B0BD1FB6883
:105AB0001A69FB681B6812681A64FB681A69FB683C
:105AC0001B6852685A64FB681B681A68FB681B688D
:105AD00042F480421A60FB6802221A64396AF8684C
